{
  "_format": "hh-sol-artifact-1",
  "contractName": "DeviceSupplyChain",
  "sourceName": "contracts/DeviceSupplyChain.sol",
  "abi": [
    {
      "anonymous": false,
      "inputs": [
        {
          "indexed": false,
          "internalType": "string",
          "name": "serialNumber",
          "type": "string"
        },
        {
          "indexed": false,
          "internalType": "address",
          "name": "owner",
          "type": "address"
        }
      ],
      "name": "DeviceActivated",
      "type": "event"
    },
    {
      "anonymous": false,
      "inputs": [
        {
          "indexed": false,
          "internalType": "string",
          "name": "serialNumber",
          "type": "string"
        },
        {
          "indexed": false,
          "internalType": "address",
          "name": "manufacturer",
          "type": "address"
        }
      ],
      "name": "DeviceRegistered",
      "type": "event"
    },
    {
      "anonymous": false,
      "inputs": [
        {
          "indexed": false,
          "internalType": "string",
          "name": "serialNumber",
          "type": "string"
        },
        {
          "indexed": false,
          "internalType": "address",
          "name": "shipper",
          "type": "address"
        }
      ],
      "name": "DeviceShipped",
      "type": "event"
    },
    {
      "inputs": [
        {
          "internalType": "string",
          "name": "serial",
          "type": "string"
        }
      ],
      "name": "activateDevice",
      "outputs": [],
      "stateMutability": "nonpayable",
      "type": "function"
    },
    {
      "inputs": [
        {
          "internalType": "string",
          "name": "",
          "type": "string"
        }
      ],
      "name": "devices",
      "outputs": [
        {
          "internalType": "string",
          "name": "serialNumber",
          "type": "string"
        },
        {
          "internalType": "address",
          "name": "manufacturer",
          "type": "address"
        },
        {
          "internalType": "address",
          "name": "shipper",
          "type": "address"
        },
        {
          "internalType": "address",
          "name": "owner",
          "type": "address"
        },
        {
          "internalType": "enum DeviceSupplyChain.Stage",
          "name": "stage",
          "type": "uint8"
        },
        {
          "internalType": "bool",
          "name": "exists",
          "type": "bool"
        }
      ],
      "stateMutability": "view",
      "type": "function"
    },
    {
      "inputs": [
        {
          "internalType": "string",
          "name": "serial",
          "type": "string"
        }
      ],
      "name": "getDevice",
      "outputs": [
        {
          "internalType": "string",
          "name": "",
          "type": "string"
        },
        {
          "internalType": "address",
          "name": "",
          "type": "address"
        },
        {
          "internalType": "address",
          "name": "",
          "type": "address"
        },
        {
          "internalType": "address",
          "name": "",
          "type": "address"
        },
        {
          "internalType": "enum DeviceSupplyChain.Stage",
          "name": "",
          "type": "uint8"
        },
        {
          "internalType": "bool",
          "name": "",
          "type": "bool"
        }
      ],
      "stateMutability": "view",
      "type": "function"
    },
    {
      "inputs": [
        {
          "internalType": "string",
          "name": "serial",
          "type": "string"
        }
      ],
      "name": "registerDevice",
      "outputs": [],
      "stateMutability": "nonpayable",
      "type": "function"
    },
    {
      "inputs": [
        {
          "internalType": "string",
          "name": "serial",
          "type": "string"
        },
        {
          "internalType": "address",
          "name": "shipper",
          "type": "address"
        }
      ],
      "name": "updateShipment",
      "outputs": [],
      "stateMutability": "nonpayable",
      "type": "function"
    }
  ],
  "bytecode": "0x608060405234801561001057600080fd5b50611376806100206000396000f3fe608060405234801561001057600080fd5b50600436106100575760003560e01c8063222333961461005c5780636eb6481714610091578063b71a0346146100ad578063cf4b985e146100e2578063d844e1ac146100fe575b600080fd5b61007660048036038101906100719190610c06565b61011a565b60405161008896959493929190610da1565b60405180910390f35b6100ab60048036038101906100a69190610c06565b61026e565b005b6100c760048036038101906100c29190610c06565b6103c4565b6040516100d996959493929190610da1565b60405180910390f35b6100fc60048036038101906100f79190610c06565b610618565b005b61011860048036038101906101139190610e35565b6108a6565b005b60008180516020810182018051848252602083016020850120818352809550505050505060009150905080600001805461015390610ec0565b80601f016020809104026020016040519081016040528092919081815260200182805461017f90610ec0565b80156101cc5780601f106101a1576101008083540402835291602001916101cc565b820191906000526020600020905b8154815290600101906020018083116101af57829003601f168201915b5050505050908060010160009054906101000a900473ffffffffffffffffffffffffffffffffffffffff16908060020160009054906101000a900473ffffffffffffffffffffffffffffffffffffffff16908060030160009054906101000a900473ffffffffffffffffffffffffffffffffffffffff16908060030160149054906101000a900460ff16908060030160159054906101000a900460ff16905086565b8060008160405161027f9190610f2d565b908152602001604051809103902060030160159054906101000a900460ff166102dd576040517f08c379a00000000000000000000000000000000000000000000000000000000081526004016102d490610f90565b60405180910390fd5b336000836040516102ee9190610f2d565b908152602001604051809103902060030160006101000a81548173ffffffffffffffffffffffffffffffffffffffff021916908373ffffffffffffffffffffffffffffffffffffffff160217905550600260008360405161034f9190610f2d565b908152602001604051809103902060030160146101000a81548160ff0219169083600281111561038257610381610d0f565b5b02179055507fdcd9d27285f81ab019e710c32ad713371158930e2465b33fd3e736a100852c7482336040516103b8929190610fb0565b60405180910390a15050565b60606000806000806000806000886040516103df9190610f2d565b90815260200160405180910390206040518060c001604052908160008201805461040890610ec0565b80601f016020809104026020016040519081016040528092919081815260200182805461043490610ec0565b80156104815780601f1061045657610100808354040283529160200191610481565b820191906000526020600020905b81548152906001019060200180831161046457829003601f168201915b505050505081526020016001820160009054906101000a900473ffffffffffffffffffffffffffffffffffffffff1673ffffffffffffffffffffffffffffffffffffffff1673ffffffffffffffffffffffffffffffffffffffff1681526020016002820160009054906101000a900473ffffffffffffffffffffffffffffffffffffffff1673ffffffffffffffffffffffffffffffffffffffff1673ffffffffffffffffffffffffffffffffffffffff1681526020016003820160009054906101000a900473ffffffffffffffffffffffffffffffffffffffff1673ffffffffffffffffffffffffffffffffffffffff1673ffffffffffffffffffffffffffffffffffffffff1681526020016003820160149054906101000a900460ff1660028111156105b1576105b0610d0f565b5b60028111156105c3576105c2610d0f565b5b81526020016003820160159054906101000a900460ff1615151515815250509050806000015181602001518260400151836060015184608001518560a001519650965096509650965096505091939550919395565b6000816040516106289190610f2d565b908152602001604051809103902060030160159054906101000a900460ff1615610687576040517f08c379a000000000000000000000000000000000000000000000000000000000815260040161067e9061102c565b60405180910390fd5b6040518060c001604052808281526020013373ffffffffffffffffffffffffffffffffffffffff168152602001600073ffffffffffffffffffffffffffffffffffffffff168152602001600073ffffffffffffffffffffffffffffffffffffffff1681526020016000600281111561070257610701610d0f565b5b81526020016001151581525060008260405161071e9190610f2d565b908152602001604051809103902060008201518160000190816107419190611202565b5060208201518160010160006101000a81548173ffffffffffffffffffffffffffffffffffffffff021916908373ffffffffffffffffffffffffffffffffffffffff16021790555060408201518160020160006101000a81548173ffffffffffffffffffffffffffffffffffffffff021916908373ffffffffffffffffffffffffffffffffffffffff16021790555060608201518160030160006101000a81548173ffffffffffffffffffffffffffffffffffffffff021916908373ffffffffffffffffffffffffffffffffffffffff16021790555060808201518160030160146101000a81548160ff0219169083600281111561084257610841610d0f565b5b021790555060a08201518160030160156101000a81548160ff0219169083151502179055509050507f10fc4a53238f78d2e8ef8aa41bafb46e41f929f68f8f4233c365ef14b2f5ed5c813360405161089b929190610fb0565b60405180910390a150565b816000816040516108b79190610f2d565b908152602001604051809103902060030160159054906101000a900460ff16610915576040517f08c379a000000000000000000000000000000000000000000000000000000000815260040161090c90610f90565b60405180910390fd5b3373ffffffffffffffffffffffffffffffffffffffff1660008460405161093c9190610f2d565b908152602001604051809103902060010160009054906101000a900473ffffffffffffffffffffffffffffffffffffffff1673ffffffffffffffffffffffffffffffffffffffff16146109c4576040517f08c379a00000000000000000000000000000000000000000000000000000000081526004016109bb90611320565b60405180910390fd5b816000846040516109d59190610f2d565b908152602001604051809103902060020160006101000a81548173ffffffffffffffffffffffffffffffffffffffff021916908373ffffffffffffffffffffffffffffffffffffffff1602179055506001600084604051610a369190610f2d565b908152602001604051809103902060030160146101000a81548160ff02191690836002811115610a6957610a68610d0f565b5b02179055507fbcd1db7dd032060093841ac44eb2cd67e8faf32732255674bd8eb50cfb2c71d08383604051610a9f929190610fb0565b60405180910390a1505050565b6000604051905090565b600080fd5b600080fd5b600080fd5b600080fd5b6000601f19601f8301169050919050565b7f4e487b7100000000000000000000000000000000000000000000000000000000600052604160045260246000fd5b610b1382610aca565b810181811067ffffffffffffffff82111715610b3257610b31610adb565b5b80604052505050565b6000610b45610aac565b9050610b518282610b0a565b919050565b600067ffffffffffffffff821115610b7157610b70610adb565b5b610b7a82610aca565b9050602081019050919050565b82818337600083830152505050565b6000610ba9610ba484610b56565b610b3b565b905082815260208101848484011115610bc557610bc4610ac5565b5b610bd0848285610b87565b509392505050565b600082601f830112610bed57610bec610ac0565b5b8135610bfd848260208601610b96565b91505092915050565b600060208284031215610c1c57610c1b610ab6565b5b600082013567ffffffffffffffff811115610c3a57610c39610abb565b5b610c4684828501610bd8565b91505092915050565b600081519050919050565b600082825260208201905092915050565b60005b83811015610c89578082015181840152602081019050610c6e565b60008484015250505050565b6000610ca082610c4f565b610caa8185610c5a565b9350610cba818560208601610c6b565b610cc381610aca565b840191505092915050565b600073ffffffffffffffffffffffffffffffffffffffff82169050919050565b6000610cf982610cce565b9050919050565b610d0981610cee565b82525050565b7f4e487b7100000000000000000000000000000000000000000000000000000000600052602160045260246000fd5b60038110610d4f57610d4e610d0f565b5b50565b6000819050610d6082610d3e565b919050565b6000610d7082610d52565b9050919050565b610d8081610d65565b82525050565b60008115159050919050565b610d9b81610d86565b82525050565b600060c0820190508181036000830152610dbb8189610c95565b9050610dca6020830188610d00565b610dd76040830187610d00565b610de46060830186610d00565b610df16080830185610d77565b610dfe60a0830184610d92565b979650505050505050565b610e1281610cee565b8114610e1d57600080fd5b50565b600081359050610e2f81610e09565b92915050565b60008060408385031215610e4c57610e4b610ab6565b5b600083013567ffffffffffffffff811115610e6a57610e69610abb565b5b610e7685828601610bd8565b9250506020610e8785828601610e20565b9150509250929050565b7f4e487b7100000000000000000000000000000000000000000000000000000000600052602260045260246000fd5b60006002820490506001821680610ed857607f821691505b602082108103610eeb57610eea610e91565b5b50919050565b600081905092915050565b6000610f0782610c4f565b610f118185610ef1565b9350610f21818560208601610c6b565b80840191505092915050565b6000610f398284610efc565b915081905092915050565b7f446576696365206e6f7420666f756e6400000000000000000000000000000000600082015250565b6000610f7a601083610c5a565b9150610f8582610f44565b602082019050919050565b60006020820190508181036000830152610fa981610f6d565b9050919050565b60006040820190508181036000830152610fca8185610c95565b9050610fd96020830184610d00565b9392505050565b7f416c726561647920657869737473000000000000000000000000000000000000600082015250565b6000611016600e83610c5a565b915061102182610fe0565b602082019050919050565b6000602082019050818103600083015261104581611009565b9050919050565b60008190508160005260206000209050919050565b60006020601f8301049050919050565b600082821b905092915050565b6000600883026110ae7fffffffffffffffffffffffffffffffffffffffffffffffffffffffffffffffff82611071565b6110b88683611071565b95508019841693508086168417925050509392505050565b6000819050919050565b6000819050919050565b60006110ff6110fa6110f5846110d0565b6110da565b6110d0565b9050919050565b6000819050919050565b611119836110e4565b61112d61112582611106565b84845461107e565b825550505050565b600090565b611142611135565b61114d818484611110565b505050565b5b818110156111715761116660008261113a565b600181019050611153565b5050565b601f8211156111b6576111878161104c565b61119084611061565b8101602085101561119f578190505b6111b36111ab85611061565b830182611152565b50505b505050565b600082821c905092915050565b60006111d9600019846008026111bb565b1980831691505092915050565b60006111f283836111c8565b9150826002028217905092915050565b61120b82610c4f565b67ffffffffffffffff81111561122457611223610adb565b5b61122e8254610ec0565b611239828285611175565b600060209050601f83116001811461126c576000841561125a578287015190505b61126485826111e6565b8655506112cc565b601f19841661127a8661104c565b60005b828110156112a25784890151825560018201915060208501945060208101905061127d565b868310156112bf57848901516112bb601f8916826111c8565b8355505b6001600288020188555050505b505050505050565b7f4f6e6c79206d616e7566616374757265722063616e2073686970000000000000600082015250565b600061130a601a83610c5a565b9150611315826112d4565b602082019050919050565b60006020820190508181036000830152611339816112fd565b905091905056fea2646970667358221220f729a32a02c52ed332e160653442eb732e6ed990a797c3028d18d4c208e059bd64736f6c63430008140033",
  "linkReferences": {},
  "deployedLinkReferences": {}
}